:100000000C94D3000C94F0000C94F0000C94F000CD
:100010000C94F0000C94F0000C94F0000C94F000A0
:100020000C94F0000C94F0000C94F0000C94F00090
:100030000C94F0000C94D9040C94F0000C94F00093
:100040000C94F0000C94F0000C94F0000C94F00070
:100050000C94F0000C94F0000C94F0000C94F00060
:100060000C94F0000C94F00042656D2076696E648B
:100070006F2021212120202020202020202020202E
:10008000200000446566204C617267757261202013
:10009000202020000044656620436F6D7072696DFA
:1000A000656E746F2020202020000044656620418A
:1000B0006C747572612020202000004675726F20DC
:1000C0006E6F205661736F202020202020200000BA
:1000D000506F6C6972206F205661736F2020202052
:1000E0000000456D2070726F636573736F2E2E2E46
:1000F0002E202020000046696D20646F2070726FF2
:10010000636573736F20202020202000004D6F6CEA
:1001100064616E646F2020202020200000436F7AED
:10012000696E68616E646F202020202020000052DC
:100130006573667269616E646F2020202020200044
:1001400000467572616E646F202020202020000020
:10015000506F6C696E646F202020202020000049C1
:100160006E746572726F6D70656E646F21202020F1
:10017000202000005B73696D5D20205B6E616F5D08
:100180002000005B73696D5D20205B6E616F5D20F8
:1001900000005265696E696369616E646F2E2E2E70
:1001A0002E202000000011241FBECFEFD8E0DEBFBC
:1001B000CDBF11E0A0E0B1E0E0E0FDE002C00590BD
:1001C0000D92A830B107D9F711E0A8E0B1E001C065
:1001D0001D92AC31B107E1F70E9407050C947E0631
:1001E0000C940000662311F4299801C0299A9BB150
:1001F000282F207F9F70922B9BB995E09A95F1F75D
:100200000000289A95E09A95F1F70000289890EF61
:100210009A95F1F79BB1282F2295207F9F70922B02
:100220009BB995E09A95F1F70000289A95E09A9588
:10023000F1F70000289890EF9A95F1F7662341F4C2
:10024000843030F48FE39FE10197F1F700C00000A4
:100250000895299828988FEF99EFA0E08150904059
:10026000A040E1F700C000008BB18F7080638BB9B4
:1002700095E09A95F1F70000289AA5E0AA95F1F784
:1002800000002898B0EFBA95F1F78FE19EE401974E
:10029000F1F700C0000095E09A95F1F70000289A68
:1002A000A5E0AA95F1F700002898B0EFBA95F1F70C
:1002B0008FE193E00197F1F700C0000095E09A9577
:1002C000F1F70000289AA5E0AA95F1F70000289818
:1002D000B0EFBA95F1F78BB18F7080628BB985E082
:1002E0008A95F1F70000289A95E09A95F1F70000B9
:1002F0002898A0EFAA95F1F788E260E00E94F2004A
:1003000088E060E00E94F20081E060E00E94F2007C
:100310008CE060E00E94F20080E860E00E94F20061
:100320000895CF93DF93EC018881882339F02196DB
:1003300061E00E94F20089918823D1F7DF91CF918B
:100340000895CF93DF93EC01FE012491222359F00D
:10035000FC01849161E00E94F2002196CE01FE0131
:1003600024912223A9F7DF91CF910895FB0120E387
:10037000208321832283238324832AE030E0B90170
:100380000E942D06805D8193862F972F0097B9F7E5
:10039000089580E860E00E94F20088E690E00E9404
:1003A000A1018091080190910901009739F482E040
:1003B0008093070181E060E00E94F200089580E8E8
:1003C00060E00E94F20083E890E00E94A101809129
:1003D000040190E06EE071E00E94B60185EC60E0FF
:1003E0000E94F2008091100161E00E94F200809171
:1003F0000F0161E00E94F20080910E0161E00E9415
:10040000F20089EC60E00E94F2008CE361E00E945F
:10041000F20085E461E00E94F2008EE461E00E9457
:10042000F20084E561E00E94F20085E461E00E9450
:10043000F20082E561E00E94F2008EE361E00E943A
:10044000F20030990EC0809104018F5F8093040107
:100450008FEF91EEA4E081509040A040E1F700C002
:10046000000031990EC080910401815080930401F5
:100470008FEF91EEA4E081509040A040E1F700C0E2
:100480000000329910C083E0809307018FEF95EA56
:10049000AEE081509040A040E1F700C0000081E054
:1004A00060E00E94F200089580E860E00E94F2009F
:1004B00085E990E00E94A1018091050190E06EE045
:1004C00071E00E94B60185EC60E00E94F20080912C
:1004D000100161E00E94F20080910F0161E00E9432
:1004E000F20080910E0161E00E94F20089EC60E070
:1004F0000E94F2008CE361E00E94F20085E461E07A
:100500000E94F2008EE461E00E94F20084E561E066
:100510000E94F20085E461E00E94F20082E561E061
:100520000E94F2008EE361E00E94F20030990EC05A
:10053000809105018F5F809305018FEF91EEA4E01C
:1005400081509040A040E1F700C0000031990EC0FA
:10055000809105018150809305018FEF91EEA4E019
:1005600081509040A040E1F700C00000329910C0D7
:1005700084E0809307018FEF95EAAEE081509040D0
:10058000A040E1F700C0000081E060E00E94F200BE
:10059000089580E860E00E94F2008BEA90E00E94FB
:1005A000A1018091060190E06EE071E00E94B60129
:1005B00085EC60E00E94F2008091100161E00E94F1
:1005C000F20080910F0161E00E94F20080910E0123
:1005D00061E00E94F20089EC60E00E94F2008CE38E
:1005E00061E00E94F20085E461E00E94F2008EE486
:1005F00061E00E94F20084E561E00E94F20085E47F
:1006000061E00E94F20082E561E00E94F2008EE368
:1006100061E00E94F20030990EC0809106018F5F68
:10062000809306018FEF91EEA4E081509040A040AE
:10063000E1F700C0000031990EC0809106018150A1
:10064000809306018FEF91EEA4E081509040A0408E
:10065000E1F700C00000329910C085E080930701E7
:100660008FEF95EAAEE081509040A040E1F700C0E6
:10067000000081E060E00E94F200089510921701EE
:100680001092160180E860E00E94F2008BEB90E08F
:100690000E94A10180EC60E00E94F20080911501AF
:1006A00090E00090160102C0959587950A94E2F7B4
:1006B00080FF05C084E791E00E94A10104C083E8A7
:1006C00091E00E94A101309912C081E090E09093E6
:1006D0001701809316018FEF93ECA9E081509040B1
:1006E000A040E1F700C0000086E080930701319947
:1006F00010C086E0809307018FEF95EAAEE081504D
:100700009040A040E1F700C0000081E060E00E945E
:10071000F2000895109214011092130180E860E035
:100720000E94F20080ED90E00E94A10180EC60E068
:100730000E94F2008091150190E00090130102C028
:10074000959587950A94E2F780FF05C084E791E0CC
:100750000E94A10104C083E891E00E94A1013099A8
:100760001AC082E090E090931401809313018FEF00
:1007700093ECA9E081509040A040E1F700C0000058
:1007800081E060E00E94F20080EC60E00E94F200F4
:1007900087E080930701319914C087E080930701B7
:1007A0008FEF95EAAEE081509040A040E1F700C0A5
:1007B000000080EC60E00E94F20081E060E00E94B6
:1007C000F20008950E94B00580EC60E00E94F20003
:1007D00080E860E00E94F2008DE091E00E94A101BB
:1007E0002B9A33990FC02B9885E090E090930901E4
:1007F0008093080188E08093070180E860E00E9410
:10080000F200339808950E94B00580EC60E00E94E9
:10081000F20080E860E00E94F2008DE191E00E9429
:10082000A1012C9A8091080190910901009741F44F
:100830002C9889E08093070180E860E00E94F20034
:1008400008950E94B00580EC60E00E94F20080E80C
:1008500060E00E94F2008FE291E00E94A1012B9AD9
:1008600034991AC02B9880EC60E00E94F20080E876
:1008700060E00E94F20081E060E00E94F20084E00B
:1008800090E090930901809308018AE0809307012A
:1008900080E860E00E94F200089580EC60E00E9431
:1008A000F20080E860E00E94F200809116019091D1
:1008B00017018130910521F08BE0809307010895A5
:1008C00080E860E00E94F20081E491E00E94A101D2
:1008D0002D9A8091080190910901009791F42D982B
:1008E00084E090E0909309018093080180EC60E03F
:1008F0000E94F20080E860E00E94F2008BE08093AA
:100900000701089580EC60E00E94F20080E860E05A
:100910000E94F200809113019091140182309105A0
:1009200021F08CE080930701089580E860E00E9448
:10093000F20080E591E00E94A1012A9A80910801CD
:1009400090910901009791F42A9884E090E09093A7
:1009500009018093080180EC60E00E94F20080E8C9
:1009600060E00E94F2008CE080930701089580EC23
:1009700060E00E94F20080E860E00E94F20086EFF2
:1009800090E00E94A1018FEF9BE7A2E98150904087
:10099000A040E1F700C0000083E090E090930901DF
:1009A0008093080181E08093070160E00E94F200DB
:1009B00008951F920F920FB60F9211248F939F9359
:1009C00087EF92EC909385008093840080910801DA
:1009D00090910901009729F0019790930901809364
:1009E00008019F918F910F900FBE0F901F90189547
:1009F00085E480937C0087E880937A00089594B51D
:100A0000936094BD95E095BD87BD789408951F933C
:100A1000CF93DF938FE384B915B817B88FEF88B9F8
:100A20008AB98BB91092C10017B810928000E1E822
:100A3000F0E0108280818560808387EF92EC909354
:100A4000850080938400EFE6F0E080818160808300
:100A500078940E9429010E94F80481E060E00E94DD
:100A6000F20083E090E09093090180930801CFE5C4
:100A7000D1E01CE080910701863079F1873070F475
:100A8000833011F1843028F48130C1F08230C9F50F
:100A900018C08430E1F08530A1F51CC0893031F1F7
:100AA0008A3028F48730E1F0883059F51CC08B304B
:100AB00019F18B30F0F08C3021F521C00E94C90172
:100AC00020C00E94DF011DC00E9454021AC00E9473
:100AD000C90217C00E943E0314C00E948A0311C0BD
:100AE0000E94E2030EC00E9403040BC00E94210476
:100AF00008C00E944D0405C00E94820402C00E94EA
:100B0000B70480910701863008F4B4CF329914C03D
:100B100080910A0190910B01019690930B018093B3
:100B20000A012BE0893B920708F4A4CFCE010E9472
:100B3000A101109307019ECF10920B0110920A01A0
:100B400099CFEAE7F0E0808180648083808186FD30
:100B5000FDCF2091780030917900822F932F089556
:100B6000CF93DF930E94A10580930C0190930D0118
:100B70000E94FF04CEE0D1E080910C0190910D0124
:100B8000BE010E94B6018CEC60E00E94F2008091F0
:100B9000110161E00E94F2008091100161E00E9469
:100BA000F20080910F0161E00E94F20080910E013D
:100BB00061E00E94F20020910C0130910D0148E8A3
:100BC00053E10E941E062FEF33E040E050E00E9408
:100BD0004106209318013093190140931A01509354
:100BE0001B01822F932FBE010E94B60180EC60E0B2
:100BF0000E94F2008091110161E00E94F200809158
:100C0000100161E00E94F20080910F0161E00E94FA
:100C1000F20080910E0161E00E94F20080E091E01C
:100C20000E9491018FEF91EEA4E081509040A0408E
:100C3000E1F700C00000DF91CF910895539FC001FC
:100C4000429FB001529F700D811D1124911D349F50
:100C5000700D811D1124911D0895AA1BBB1B51E12C
:100C600007C0AA1FBB1FA617B70710F0A61BB70B1C
:100C7000881F991F5A95A9F780959095BC01CD01C1
:100C8000089597FB092E05260ED057FD04D014D0E9
:100C90000AD0001C38F450954095309521953F4F6F
:100CA0004F4F5F4F0895F6F7909580957095619539
:100CB0007F4F8F4F9F4F0895A1E21A2EAA1BBB1B97
:100CC000FD010DC0AA1FBB1FEE1FFF1FA217B30718
:100CD000E407F50720F0A21BB30BE40BF50B661F2E
:100CE000771F881F991F1A9469F7609570958095F2
:100CF00090959B01AC01BD01CF010895F894FFCF01
:080D0000206D560002030401FE
:00000001FF
